{
  "contractName": "AssetManager",
  "abi": [
    {
      "constant": true,
      "inputs": [],
      "name": "totalShare",
      "outputs": [
        {
          "name": "",
          "type": "uint8"
        }
      ],
      "payable": false,
      "stateMutability": "view",
      "type": "function"
    },
    {
      "constant": true,
      "inputs": [
        {
          "name": "",
          "type": "address"
        }
      ],
      "name": "owningShareOf",
      "outputs": [
        {
          "name": "",
          "type": "uint8"
        }
      ],
      "payable": false,
      "stateMutability": "view",
      "type": "function"
    },
    {
      "constant": true,
      "inputs": [],
      "name": "buyableShare",
      "outputs": [
        {
          "name": "",
          "type": "uint8"
        }
      ],
      "payable": false,
      "stateMutability": "view",
      "type": "function"
    },
    {
      "constant": true,
      "inputs": [],
      "name": "tokenReward",
      "outputs": [
        {
          "name": "",
          "type": "address"
        }
      ],
      "payable": false,
      "stateMutability": "view",
      "type": "function"
    },
    {
      "constant": true,
      "inputs": [],
      "name": "price",
      "outputs": [
        {
          "name": "",
          "type": "uint256"
        }
      ],
      "payable": false,
      "stateMutability": "view",
      "type": "function"
    },
    {
      "constant": true,
      "inputs": [
        {
          "name": "",
          "type": "uint256"
        }
      ],
      "name": "ownerOfAsset",
      "outputs": [
        {
          "name": "",
          "type": "address"
        }
      ],
      "payable": false,
      "stateMutability": "view",
      "type": "function"
    },
    {
      "constant": true,
      "inputs": [],
      "name": "id",
      "outputs": [
        {
          "name": "",
          "type": "uint256"
        }
      ],
      "payable": false,
      "stateMutability": "view",
      "type": "function"
    },
    {
      "inputs": [
        {
          "name": "tokenAddress",
          "type": "address"
        }
      ],
      "payable": false,
      "stateMutability": "nonpayable",
      "type": "constructor"
    },
    {
      "constant": false,
      "inputs": [
        {
          "name": "_id",
          "type": "uint256"
        }
      ],
      "name": "registerAsset",
      "outputs": [],
      "payable": false,
      "stateMutability": "nonpayable",
      "type": "function"
    },
    {
      "constant": false,
      "inputs": [
        {
          "name": "_price",
          "type": "uint256"
        },
        {
          "name": "_amount",
          "type": "uint8"
        }
      ],
      "name": "buyAsset",
      "outputs": [],
      "payable": true,
      "stateMutability": "payable",
      "type": "function"
    },
    {
      "constant": true,
      "inputs": [
        {
          "name": "_owner",
          "type": "address"
        }
      ],
      "name": "getOwnShare",
      "outputs": [
        {
          "name": "",
          "type": "uint8"
        }
      ],
      "payable": false,
      "stateMutability": "view",
      "type": "function"
    },
    {
      "constant": true,
      "inputs": [],
      "name": "getBuyableShare",
      "outputs": [
        {
          "name": "",
          "type": "uint8"
        }
      ],
      "payable": false,
      "stateMutability": "view",
      "type": "function"
    },
    {
      "constant": true,
      "inputs": [],
      "name": "getCurrentPrice",
      "outputs": [
        {
          "name": "",
          "type": "uint256"
        }
      ],
      "payable": false,
      "stateMutability": "view",
      "type": "function"
    }
  ],
  "bytecode": "0x60806040526064600360006101000a81548160ff021916908360ff1602179055506064600360016101000a81548160ff021916908360ff160217905550600160045534801561004d57600080fd5b506040516020806107c283398101806040528101908080519060200190929190505050806000806101000a81548173ffffffffffffffffffffffffffffffffffffffff021916908373ffffffffffffffffffffffffffffffffffffffff16021790555050610702806100c06000396000f3006080604052600436106100ba576000357c0100000000000000000000000000000000000000000000000000000000900463ffffffff168063026c4207146100bf5780630477a736146100f0578063114a0f501461014d578063582fd6171461017a57806362cba38e146101a75780636e66f6e9146101d857806388440a5f1461022f578063a035b1fe14610260578063a084c6ad1461028b578063af640d0f146102f8578063eb91d37e14610323578063f855c5691461034e575b600080fd5b3480156100cb57600080fd5b506100d46103ab565b604051808260ff1660ff16815260200191505060405180910390f35b3480156100fc57600080fd5b50610131600480360381019080803573ffffffffffffffffffffffffffffffffffffffff1690602001909291905050506103be565b604051808260ff1660ff16815260200191505060405180910390f35b61017860048036038101908080359060200190929190803560ff1690602001909291905050506103de565b005b34801561018657600080fd5b506101a5600480360381019080803590602001909291905050506105de565b005b3480156101b357600080fd5b506101bc6105e8565b604051808260ff1660ff16815260200191505060405180910390f35b3480156101e457600080fd5b506101ed6105fb565b604051808273ffffffffffffffffffffffffffffffffffffffff1673ffffffffffffffffffffffffffffffffffffffff16815260200191505060405180910390f35b34801561023b57600080fd5b50610244610620565b604051808260ff1660ff16815260200191505060405180910390f35b34801561026c57600080fd5b50610275610637565b6040518082815260200191505060405180910390f35b34801561029757600080fd5b506102b66004803603810190808035906020019092919050505061063d565b604051808273ffffffffffffffffffffffffffffffffffffffff1673ffffffffffffffffffffffffffffffffffffffff16815260200191505060405180910390f35b34801561030457600080fd5b5061030d610670565b6040518082815260200191505060405180910390f35b34801561032f57600080fd5b50610338610676565b6040518082815260200191505060405180910390f35b34801561035a57600080fd5b5061038f600480360381019080803573ffffffffffffffffffffffffffffffffffffffff169060200190929190505050610680565b604051808260ff1660ff16815260200191505060405180910390f35b600360009054906101000a900460ff1681565b60026020528060005260406000206000915054906101000a900460ff1681565b8060ff16600360019054906101000a900460ff1660ff16101561040057600080fd5b6000809054906101000a900473ffffffffffffffffffffffffffffffffffffffff1673ffffffffffffffffffffffffffffffffffffffff1663beabacc833308460ff1686026040518463ffffffff167c0100000000000000000000000000000000000000000000000000000000028152600401808473ffffffffffffffffffffffffffffffffffffffff1673ffffffffffffffffffffffffffffffffffffffff1681526020018373ffffffffffffffffffffffffffffffffffffffff1673ffffffffffffffffffffffffffffffffffffffff1681526020018281526020019350505050602060405180830381600087803b1580156104fd57600080fd5b505af1158015610511573d6000803e3d6000fd5b505050506040513d602081101561052757600080fd5b8101908080519060200190929190505050151561054357600080fd5b80600260003373ffffffffffffffffffffffffffffffffffffffff1673ffffffffffffffffffffffffffffffffffffffff16815260200190815260200160002060008282829054906101000a900460ff160192506101000a81548160ff021916908360ff16021790555080600360018282829054906101000a900460ff160392506101000a81548160ff021916908360ff1602179055505050565b8060018190555050565b600360019054906101000a900460ff1681565b6000809054906101000a900473ffffffffffffffffffffffffffffffffffffffff1681565b6000600360019054906101000a900460ff16905090565b60045481565b60056020528060005260406000206000915054906101000a900473ffffffffffffffffffffffffffffffffffffffff1681565b60015481565b6000600454905090565b6000600260008373ffffffffffffffffffffffffffffffffffffffff1673ffffffffffffffffffffffffffffffffffffffff16815260200190815260200160002060009054906101000a900460ff1690509190505600a165627a7a7230582005b855778297a45f551efb24c7961c9d58629d961a6aa5f22759890ecc9307420029",
  "source": "pragma solidity ^0.4.18;\r\n\r\nimport \"./Token.sol\";\r\n\r\ncontract AssetManager {\r\n\r\n    Token public tokenReward;\r\n    uint256 public id;\r\n    mapping (address => uint8) public owningShareOf;\r\n    uint8 public totalShare = 100;\r\n    uint8 public buyableShare = 100;\r\n    uint256 public price = 1;\r\n\r\n    mapping (uint256 => address) public ownerOfAsset;\r\n\r\n    constructor(address tokenAddress) public {\r\n        tokenReward = Token(tokenAddress);\r\n    }\r\n\r\n    function registerAsset(uint256 _id) public {\r\n        id = _id;\r\n    }\r\n\r\n    function buyAsset(uint256 _price, uint8 _amount) public payable {\r\n        \r\n        if (buyableShare < _amount) revert();\r\n        if (!tokenReward.transfer(msg.sender, this, _price * _amount)) revert();\r\n\r\n        owningShareOf[msg.sender] += _amount;\r\n        buyableShare -= _amount;\r\n    }\r\n\r\n    function getOwnShare(address _owner) public view returns (uint8) {\r\n        return owningShareOf[_owner];\r\n    }\r\n\r\n    function getBuyableShare() public view returns (uint8) {\r\n        return buyableShare;\r\n    }\r\n\r\n    function getCurrentPrice() public view returns (uint256) {\r\n        return price;\r\n    }\r\n}",
  "sourcePath": "C:\\Users\\sonagi623\\Desktop\\git\\digital-asset-liquidation\\server\\truffle\\contracts\\AssetManager.sol",
  "compiler": {
    "name": "solc",
    "version": "0.4.24+commit.e67f0147.Emscripten.clang"
  },
  "schemaVersion": "2.0.0",
  "updatedAt": "2018-07-21T05:51:26.673Z"
}